:020000040800F2
:10000000F808002005020008DB420008BB3E00089B
:10001000D9420008FD270008814D000800000000BB
:10002000000000000000000000000000D7440008AD
:10003000152A000800000000D544000865470008A4
:100040001F0200081F0200081F0200081F0200080C
:100050001F0200081F020008172A00081F020008DC
:100060001F0200081D2A0008232A00081F0200089A
:100070001F0200081F0200081F0200081F020008DC
:100080001F0200081F0200081F0200081F020008CC
:100090001F0200081F0200081F0200081F020008BC
:1000A0001F0200081F0200081F0200081F020008AC
:1000B0001F020008C94700081F0200081F020008AD
:1000C0001F0200081F0200081F0200081F0200088C
:1000D0001F0200081F020008FD4C00081F02000854
:1000E0001F0200081F0200081F0200081F0200086C
:1000F0001F0200081F0200081F0200081F0200085C
:100100001F0200081F0200081F0200081F0200084B
:100110001F0200081F0200081F0200081F0200083B
:100120001F0200081F0200081F0200081F0200082B
:1001300000F002F800F056F80AA090E8000C8244A3
:100140008344AAF10107DA4501D100F04BF8AFF280
:10015000090EBAE80F0013F0010F18BFFB1A43F0A5
:1001600001031847546D0000746D0000103A24BF5D
:1001700078C878C1FAD8520724BF30C830C144BF0C
:1001800004680C607047000000230024002500264E
:10019000103A28BF78C1FBD8520728BF30C148BFEA
:1001A0000B607047662905F07886642900F0C080EE
:1001B000752900F0BD80732900F0FD85002070478F
:1001C0001FB501F093F804000020002105F02AFA81
:1001D000401C60600020002105F00EFAE0601FBDA9
:1001E00010B510BD01F044FB1146FFF7E9FF05F023
:1001F00021F901F09DFD03B4FFF7F2FF03BC01F00C
:10020000F1FD00000948804709480047FEE7FEE786
:10021000FEE7FEE7FEE7FEE7FEE7FEE7FEE7FEE7B6
:1002200004480549054A064B70470000C7470008C7
:1002300031010008F8020020F8080020F80400202E
:10024000F80400200FB41CB5074B06AA7B4469468E
:100250000090059800F085FD0020694600F094FDAF
:100260001CBC5DF814FB0000390B000070B504469F
:1002700085690068C10601D5302600E02026C00748
:1002800007D070BDD4E9012130469047206A401C58
:1002900020626D1EF6D570BD70B504468569007884
:1002A000C00707D170BDD4E9012120209047206A02
:1002B000401C20626D1EF6D570BD09684A0501D547
:1002C00040B27047C905FCD500B2704709684A05BD
:1002D00001D5C0B27047C905FCD580B2704770B572
:1002E0000C460546012A05D02878800600D5EA6923
:1002F000002302E0012305E05B1C934202D2E05C94
:100300000028F9D1A869E618C01AA861286A18441B
:1003100028622846FFF7AAFF04E0D5E9012114F876
:10032000010B9047B442F8D32846FFF7B5FF70BDE4
:100330002DE9F0410646002410687529314616A5BE
:1003400010D0FFF7BAFF002802DA404213A507E0F9
:1003500031688A0701D512A502E0490704D511A525
:10036000012401E0FFF7B2FF00210A2206F1240771
:1003700009E0B0FBF2FCB0FBF2F302FB1C003030F2
:1003800078541846491C0028F3D123462A463046A3
:10039000BDE8F04100F07ABA000000002D00000036
:1003A0002B000000200000002DE9F05F8946044684
:1003B0004FF0000ADFF874B1FB44C0F820A02046DB
:1003C000E1688847002874D0252806D0D4E90121A7
:1003D0009047206A401C2062F1E700265F462046D5
:1003E000E16888472028054607DB312D05D27819BA
:1003F00010F8200C08B10643F1E7B00701D526F04C
:100400000406C4F81CA00027C4F818A02A2D09D09F
:10041000284604F040FD38B304EB8708303DC8F8A7
:10042000185019E059F8041B204604EB870291612B
:10043000E1688847012F054618D1E069002820DAD5
:1004400026F020061DE0D8F8180000EB800005EB30
:1004500040003038C8F818002046E1688847054653
:1004600004F019FD0028EED1012F0AD02E2D08D15D
:100470002046E16888477F1C0546022F46F020068B
:10048000C4DBA069002803DA404246F00106A061FF
:10049000F00701D026F010066C2D0BD0682D09D086
:1004A0004C2D39D06A2D35D0742D35D07A2D33D0DE
:1004B00016E038E0E1682F4620468847B8420546F6
:1004C00009D16C2F26D04FF48060E16806432046A6
:1004D0008847054604E06C2F1AD04FF4807006431D
:1004E0000DB3A5F14100192802D8203546F4006665
:1004F0004A462946204626604E46FFF753FE80B105
:1005000001280BD0F61D26F0070000F1080956E778
:100510004020E4E78020D8E70020D6E706F1040970
:100520004DE7284652E7206ABDE8F09F566A000072
:100530000FB400B58DB010A9099000910B904FF049
:10054000FF300A9000200C90064878440690064838
:1005500078446A4607900F9909A800F097FE0DB0FD
:100560005DF814FB5F0D0000770D00002DE9FF5FC3
:100570001D464FF0FF3B91464FF000085F46D5E91E
:100580000146A96901987F1C8847296A82468847E5
:100590000028F6D1BAF1FF3F0CD0002E24F4C0643D
:1005A00019DD600614D5BAF12B0F09D0BAF12D0F61
:1005B0000ED103E0584604B0BDE8F09F44F48064D7
:1005C000A96901987F1C8847761E8246002E02DDAD
:1005D000BAF1300F03D0B9F1000F26D032E0A9698B
:1005E000761E01987F1C44F400748847002E8246D2
:1005F00005DDBAF1780F06D0BAF1580F03D0B9F182
:10060000000F10D01EE0B9F1000F02D0B9F1100FA9
:1006100018D1A969761E01987F1C24F400748847BC
:100620008246102002E0082000E00A20814609E00E
:10063000A96908FB0908761E01987F1C44F4007420
:1006400088478246002E05DD4946504600F0B7FB3C
:100650000028EDDAE96901988847A00502D46FF017
:100660000100A8E7E00725D1600613D5600502D593
:10067000C8F1000000E0404629680A1D2A600968A8
:10068000220501D5087015E0220701D5088011E088
:1006900008600FE02868011D29600068210502D567
:1006A00080F8008006E0210702D5A0F8008001E074
:1006B000C0F8008038467EE740EA0103024630B5C4
:1006C0009B0710D14FF0013400E008C208C91D1B80
:1006D0009D4315EAC41FF8D013F0FF0102F8011B77
:1006E0000DD01B0AF8E711F8013B002B02F8013B83
:1006F00005D011F8013B002B02F8013BF3D130BDCE
:1007000010B5431C02E010F8011B71B18107FAD14A
:100710004FF0013202C88C1A8C4314EAC211F9D08E
:10072000C01A0A0603D0C01E10BDC01A10BD0A04AC
:1007300001D0801E10BD0902FCD0401E10BD40EA51
:10074000010370B59B072ED14FF00136042A2AD33E
:1007500008C810C99D1B9D43121F15EAC61517D066
:10076000D8B2E1B2401A50EA056110D198B2A1B2F4
:10077000401A50EA05410AD123F07F4024F07F411E
:10078000401A50EA052102D1180EA0EB146070BD8A
:10079000A342DBD018BA21BA884201D9012070BD2A
:1007A0004FF0FF3070BD0AB9002070BD10F8013B5A
:1007B00011F8014B63B1A3420AD1521E08D010F8C0
:1007C000013B11F8014B1BB1A34201D1521EEDD1E7
:1007D000181B70BD10B5203AC0F00B80B1E818505E
:1007E000203AA0E81850B1E81850A0E81850BFF41B
:1007F000F5AF5FEA027C24BFB1E81850A0E81850BA
:1008000044BF18C918C0BDE810405FEA827C24BF0D
:1008100051F8043B40F8043B08BF7047D20728BF9B
:1008200031F8023B48BF11F8012B28BF20F8023BEA
:1008300048BF00F8012B70474FF0000200B5134687
:1008400094469646203922BFA0E80C50A0E80C50F0
:10085000B1F12001BFF4F7AF090728BFA0E80C50A1
:1008600048BF0CC05DF804EB890028BF40F8042B9A
:1008700008BF704748BF20F8022B11F0804F18BF07
:1008800000F8012B70477047704770472DE9F0471B
:100890000D4699469246044600F1240801688806F0
:1008A00004D5E06921F01001216000E00120A84298
:1008B00001DD471B00E00027A1697A1902EB09005E
:1008C000081AA0612078C00602D42046FFF7CEFCAB
:1008D000002608E0D4E901211AF806009047206AB2
:1008E000401C761C20624E45F4DB2078C0060AD5F9
:1008F0002046FFF7BBFC06E0D4E9012130209047F9
:10090000206A401C2062381EA7F10107F4DC07E0D2
:10091000D4E9012118F805009047206A401C2062A4
:10092000281EA5F10105F3DC2046FFF7B5FC207871
:10093000000602D50220BDE8F0870120FBE77047E2
:100940002DE9FF4F0C461E464FF0FF378BB0D2E922
:100950000001DDF860800A908A46C1F30A5505B9A6
:100960003D46002108464FF00000BAF1000F00F4A8
:10097000400005DA00EB80004FF4400101EA50002E
:100980004FEA9059B9F1010F00DDB9460A9850EAD3
:100990004A000ED044F61050A5F2FF3545432F14FF
:1009A000B8F1000F1ED07542291E1EDDC9F10002EC
:1009B0001CE0B8F1010F4FF0000001D0302103E03E
:1009C000F24305E02154401CB042FBDB30460022DC
:1009D000002121540B99C1F80880C1E900200FB013
:1009E000BDE8F08FBD1B6D1CDEE74A4600DA6942A8
:1009F00006A800F0CBFE06AB93E8070003AB83E844
:100A0000070050460A9901F0F4F98DE80700A0F5B7
:100A100000501F3800900398002D09DD42F21F019D
:100A20004A46084403A90390684601F07EFC08E0AA
:100A3000A0F500504A461F3803A90390684601F00C
:100A40009CFC8DE807000004000C03D04FF0FF3041
:100A5000410800E01046B8F1000F03D000220092D8
:100A600015461EE0751E05D400F048FC3032625574
:100A70006D1EF9D5B3460122084302D000227F1C27
:100A800004E02078302801D100227F1E002A099737
:100A900086D01DE0112D07DA00F030FC30326255AF
:100AA0006D1C50EA0102F5D1084302D00098C8B18C
:100AB0000EE00021681E05E0235C625C6354225452
:100AC000401E491C8142F7DBAB46A81B401E099023
:100AD000002004F80B000B98099AC0F80880C0E9C0
:100AE000002B7CE711264FF0000859E72DE9F04F65
:100AF00088460446D21D22F0070191B0D1E90001D9
:100B0000CDE90A0104F03DF902460B98C00F01D06F
:100B10002D2007E02068810701D52B2002E020214D
:100B200001EAC000032A099001D0072A05DB034629
:100B30004146204600F030FC0BE12078800601D5CC
:100B4000E06900E00620B8F1650F814606D0B8F1F3
:100B5000660F18D0B8F1670F70D131E00020B9F1FD
:100B6000110F009001DB112301E009F101030AAA32
:100B700001A90CA8FFF7E4FEDDE90C70002609F1DD
:100B80000105834647E001204B4600904FF00047A7
:100B90000AAA01A90CA8FFF7D3FEDDE90DB00C9954
:100BA0005D46002610B909F101000D18B9EB0500EA
:100BB00003D4C0F1FF3609F10105A5EB09002BE0D4
:100BC000B9F1010F01DA4FF001090020B9F1110F5D
:100BD0000090484601DD112300E003460AAA01A95E
:100BE0000CA8FFF7ADFEDDE90C704D4600268346EC
:100BF000207800070AD4AB4500DA5D4601A8012D34
:100C000004DD411911F8011C302907D04F4502DAE3
:100C100017F1040F04DA012082460FE06D1EEEE7A3
:100C2000002F02DCED1B3E4403E0781CA84200DDEF
:100C30007D1CB81B00F1010A4FF000472078000727
:100C400003D4AA4501DB4FF0FF3A0021B7F1004F72
:100C50000DF143088DF8431024D002202B23002FE0
:100C600001DA7F422D230A21021EA0F1010000DCDF
:100C70005FB197FBF1FC97FBF1F201FB1C7C17467F
:100C80000CF1300C08F801CDEEE7A8F1010003707B
:100C90002188090501D5452100E06521A0F1010861
:100CA00000F8011C09980FA9A1EB0807FF1D00B16E
:100CB0000120411901EBEA70A1693844081A401E6D
:100CC000A0612078C00602D42046FFF7CFFA099829
:100CD00028B1D4E901219047206A401C2062207885
:100CE000C00622D52046FFF7C1FA1EE0002E04DB25
:100CF000B34502DD01A8805D00E03020D4E9012188
:100D00009047206A401C2062761CAAF101005FEA2D
:100D1000000A0AD100F0EAFAC0680168405CD4E930
:100D200001219047206A401C2062281EA5F1010580
:100D3000DCDC07E0D4E9012118F8010B9047206AB8
:100D4000401C2062381EA7F10107F3DC2046FFF7A4
:100D5000A3FA032011B043E601694A1C0261087836
:100D6000704700B58FB0CDE90131002105910549EB
:100D70007944CDE9031011466846FFF715FB0FB023
:100D800000BD0000E5FFFFFF0A6802F8010B0A60E2
:100D9000704710B5436913B1AFF3008001E0FFF76E
:100DA0009EFA012010BD127800F124010A70002281
:100DB0004A700122EDE711684FF0FF32E9E73A2867
:100DC00000D2303820F02002412A01D3A2F13700AE
:100DD000884201D34FF0FF30704700002DE9FF4FEC
:100DE000064689B00878FF2806D0491C2D2805D072
:100DF00000244FF0000908E000200CE00124F8E78F
:100E000009EB8903491C00EB43090878FF28F7D157
:100E100014B1C9F100008146107800252C46AA467D
:100E200029462D2801D02B2804D1521C2D2813D05F
:100E3000002082468B461078FF280FD04FF0000C20
:100E40000A21521CA5FB017804FB018105FB0C1152
:100E5000C5194BEB0104EEE70120EAE70021084643
:100E60004FF00000BAF1000F02D000EB8000400804
:100E7000C0F38158B8F1010F01DD4FF0FF380C9835
:100E800009EB000755EA040009D04FF0020917F5F5
:100E9000FA7F0BDA4FEACA70C6E900B012E04FEAF7
:100EA000CA70C6E900B00DB0BDE8F08FB7F5FA7FA3
:100EB0000DDDF0487844D0E90010C6E9001040EAA2
:100EC000CA70706000F016FAC0F80090EBE7391EA7
:100ED00002DAC8F1000200E0424600DA794206A8D0
:100EE00000F054FC06AB93E8070003AB83E807006F
:100EF00044F23E005BEA04010090584604D144F2FB
:100F00001E012C465D460091210C0904014306D1C7
:100F10000099240444EA15442D041039009104F08A
:100F20007F41014306D10099240244EA15642D0251
:100F30000839009104F07041014306D10099240161
:100F400044EA15742D01091F009104F0404101434A
:100F500006D10099A40044EA9574AD00891E009161
:100F600004F00041084304D100986D196441401E0B
:100F7000009042466846002FCDE9014503A902DDF5
:100F800001F00FFA01E001F0E4F9BAF1000F0446B4
:100F90000D4601D084F0004440F2FF7724F0004079
:100FA000284303D0C4F30A50B84212D100F0A2F98A
:100FB000C0F80090C4F30A50B8420AD1AE48784451
:100FC000D0E90010C6E9001004F000410843706049
:100FD00069E7C6E9005466E72DE9FF4F1F464FF069
:100FE000000A4FF0FF38454691B0D7E90146CDF8E9
:100FF0003CA000F07BF9C0680168405C1090B969C2
:1010000012986D1C8847396A814688470028F6D1B6
:10101000B9F1FF3F0AD0002E24F4D06411DDB9F1FC
:101020002B0F08D0B9F12D0F0BD102E0404615B0BF
:101030003AE744F48064B96912986D1C8847761EBB
:101040008146600504A901D52D2000E02B20002E4B
:1010500001F1010B0DF130088DF810003FDDB9F101
:10106000690F08D0B9F1490F05D0B9F16E0F02D060
:10107000B9F14E0F1CD13B4601A8009580E8500203
:10108000DDE912126FF0020004F093FFC11CCED113
:101090000EE0B96912986D1C884781461398761E38
:1010A00044F4007405600F98401C002E0F9016DD6C
:1010B000B9F1300FEDD0B9F1780F02D0B9F1580F76
:1010C0000DD10F9801280AD13B46CDE90054DDE946
:1010D0001212001F029604F06AFFC11CA7D11099DA
:1010E00089453ED144F0800406E01399681CAAF1BA
:1010F000010A44F400740860B9696D1C1298761EE8
:10110000884730288146F0D02BE01099894505D1D9
:10111000200603D4761E44F0800418E0484603F00D
:10112000BAFE08B3761E0DF123018B4544F400741A
:1011300008D2A9F130000BF8010B200607D5AAF15F
:10114000010003E0200602D40AF101008246A00556
:1011500002D51399681C0860B96912986D1C8847FC
:101160008146002ED1DC53E0002E51DDB9F1650F30
:1011700002D0B9F1450F4BD1A00549D5B9696D1C15
:101180001298761E24F440748847002E81460CDDA8
:101190002B2804D0B9F12D0F07D144F48074B9691C
:1011A00012986D1C8847761E8146E00501D52D21D9
:1011B00000E02B2108F8011BCDF8008021E0761E0D
:1011C0000DF13901884544F400740CD2A9F13000C6
:1011D00010F0FF0088F8000002D10099884509D975
:1011E00008F1010806E0E00501D5244801E042F2DB
:1011F0000F708246B96912986D1C88478146139812
:101200000560002E04DD484603F045FE0028D6D1D7
:10121000F96912988847FF2053468BF8000088F838
:10122000000000200A900B9004AA0CA90AA8FFF75E
:10123000D5FDA00502D46FF00100F8E614F0240FEC
:101240000AD0E00714D13868DDE90A12031D3B60BB
:101250000068C0E900120BE00AA9684603F0C4FD6B
:10126000E00705D13868009A011D39600068026006
:101270002846DCE620600000165F0000F1D8FFFF82
:10128000026811441378016018467047D16005491F
:101290007944516104497944116200211161114678
:1012A00000F0BAB8EDFFFFFFED000000426842B168
:1012B000016811F8013B23B1521EC0E90012184623
:1012C00070470121C160881E704742685AB1C368E7
:1012D000016843B983688B4205D0491E521CC0E99E
:1012E0000012002070474FF0FF30704700487047F1
:1012F000B4020020004870479402002030B5B0F1DD
:101300000A024FEA900E71F100034EEA817EB0EBC3
:101310000E0061EB91014FEA101E4EEA017E10EBC8
:101320000E0041EB11114FEA102E4EEA016E10EB48
:101330000E0041EB11214FEA104E4EEA014E10EB28
:101340000E0041EB1141401841F100014FEAD0007D
:1013500040EA41704FEAD10110EB80054FEA810469
:1013600044EA907444EB01046D1944EB0404521BED
:10137000A3414FF0000348BF0A3200D530BD401CE6
:1013800041F1000130BD10B5044600F097FA006845
:10139000005D00F0010010BD2DE9F0411F4604463C
:1013A00003260168072A01F4006004DB08B116A5D2
:1013B00005E016A503E008B115A500E015A521F08C
:1013C00010002060A069C01EA0610FB1401EA06186
:1013D0002046FEF74BFF4FB1D4E901213846904734
:1013E000206A401C2062C01C206206E0206AFAE7E6
:1013F000D4E9012115F8010B9047761EF8D220465A
:10140000FEF74AFFBDE8F0814E414E006E616E006E
:10141000494E4600696E66002DE9F34F4FF0000A11
:101420000C4656468DB001200C9001F10C000B903B
:1014300062690B980121904705002DD0252D2CD0F5
:10144000216A8847C0B162690B9801219047216ADF
:1014500088470028F7D16269411E0B98904700E049
:10146000761CA1690D988847216A88470028F7D122
:10147000E1690D988847DBE7A1690D988847A84284
:10148000074601D1761CD3E7E1690D9888477F1C98
:1014900002D1BAF1000F6FD06BE162690B9800279F
:1014A0003D46394690472A2804D162690B980121AC
:1014B00090470125DFF8D08262690B98012190479F
:1014C000A0F130010A290AD24745E5DC07EB870184
:1014D00000EB4107303FDFD445F01005ECE7E906AB
:1014E00001D46FF000476C280AD04C2814D068282B
:1014F00015D06A280DD074281CD07A281AD01DE087
:1015000062690B98012190476C2802D045F00405D0
:1015100014E045F002050DE045F020050AE062699F
:101520000B9801219047682802D045F0080505E096
:1015300045F4006562690B9801219047C4E90157A1
:1015400065283DD019DC58287AD00CDC452837D0E6
:1015500004DC252826D041289ED131E046282FD012
:10156000472899D12CE05B2877D0612828D06328C0
:101570007CD0642823D15AE0F6E06F2848D008DCFC
:1015800066281DD067281BD0692821D06E2816D167
:1015900027E0702845D0732868D0752847D0782870
:1015A0000DD14DE0A1690D988847252805463FF4E7
:1015B00069AFE1690D9888476D1C3FF46AAFD8E0C8
:1015C0000D9923466A466FF0010004F0EEFCC5E079
:1015D00045F0400023464FF000026060A80736D473
:1015E0003EE0E8077FF447AF2068011D21600068F6
:1015F000290501D506701BE7290701D5068017E7E5
:10160000A90703D5F117C0E9006111E706600FE7EC
:1016100045F0400023464FF008026060A80716D44A
:101620001EE040F60E0125EA0100606016E045F07C
:10163000400023464FF00A026060A80707D40FE07D
:1016400045F040006060A80708D5234610220D9998
:101650006FF00100AFF3008080E007E01022234626
:101660000D996FF00100FEF781FF77E04FF0000960
:1016700063284F46C8464B46CB4602D05B2806D06F
:1016800038E0E80601D40120A060012732E0626959
:10169000D4F80CB00B98012190475E2807D14FF089
:1016A000010949466269D4F80CB00B98904721694A
:1016B00039B900210A4603AB43F82120491C082907
:1016C000FADBD8B3216949B308F1010862690B98C4
:1016D000012190475D28F4D1B9F1000F09D0002015
:1016E00003A951F82020D24341F82020401C0828AB
:1016F000F7DB03AB2069002820794FEA40701ED049
:101700005B462246CDF80080CDE901970D9900286F
:101710006FF0010020DAAFF300801FE0C11703AAC9
:1017200000EBD1614B1121F01F0102EB8302411A42
:1017300013680120884003431360C7E719E00D993F
:10174000224600286FF00100009702DAAFF3008014
:1017500004E0AFF3008001E0AFF3008000280ADA74
:10176000401C06D10C9820B14FF0FF300FB0BDE8FF
:10177000F08F5046FAE7E90701D10AF1010A064461
:1017800000200C9054E60000CCCCCC0C2DE9F047A6
:10179000814616468AB0334878440DC88DE80D005E
:1017A00030487844801C03AC0DC884E80D0041F635
:1017B0009B300844372190FBF1F290FBF1F5A5F145
:1017C000800501FB12041B3C02D56442012000E0AD
:1017D0000020DFF890A080460027FA44AAF1BE0A54
:1017E0000DE0E00709D03246684607EB47010AEBF7
:1017F000810100F0C2FD8DE8070064107F1C002C01
:10180000EFD1184F7F44AC3F18E0E80714D007EB46
:1018100004100DF1180A90E80E008AE80E00C06866
:10182000F04201D198190890324606A903A800F0A9
:10183000A4FD03AB83E807006D10641C002DE4D108
:1018400032466946B8F1000F03A802D000F06DFDE2
:1018500001E000F092FDC9E90001C9F808200AB0D2
:10186000BDE8F0870457000000487047940200204C
:101870007546FFF7F9FFAE4605006946534620F06E
:101880000700854618B020B5FEF7CAFCBDE8204029
:101890004FF000064FF000074FF000084FF0000B2C
:1018A00021F00701AC46ACE8C009ACE8C009ACE8DF
:1018B000C009ACE8C0098D467047000010B5FFF7BD
:1018C00015FD001D10BD00BF5D3D000010B5FFF708
:1018D00011FD006810BD10B50446FFF70BFD046054
:1018E00010BD00002DE9FF4F1F464FF03C0987B0A7
:1018F0004FF00042DDE9141001F10108DDF858A0B5
:1019000002EA4050039000200490834605460446B6
:101910000590B969461E08988847AAF1010A029005
:10192000BAF1000F37DD02982E2815D01021FFF7ED
:1019300046FA00282ADB4FF0010B0499014316D028
:10194000B9F1000F0BDB4A46C11700F037FA054327
:101950000C43A9F1040905E00120059007E008B156
:1019600045F0010501200490059800B9361DB969BC
:10197000089808F101088847BBF1000FAAF1010A95
:101980000290CDD00999C1F80080C9E7029870286B
:1019900008D0502806D0F96908988847BBF1000F95
:1019A00014D04FE0002002900120BBF1000F049002
:1019B00009D0B969089808F101088847AAF1010916
:1019C000B9F1000F07DCF969089888476FF001004A
:1019D0000BB0BDE8F08F2B2804D02D280CD14FF090
:1019E000FF300490B969089808F101088847A9F107
:1019F0000109B9F1000FE6DD411CE4D00A21FFF72F
:101A0000DEF90028DFDB029908F1010801EB810112
:101A100000EB41000290B969089888470A21FFF756
:101A2000CEF9099AA9F10109B9F1000FC2F80080B5
:101A300001DD0028E7DAF9690898884704990298D7
:101A400000FB016655EA040004D004F0404109009F
:101A500002D006E0039898E0A40044EA9574AD0033
:101A6000B61E04F00041080002D16D196441761ED3
:101A7000159810F0240F03D04FF00B095C4803E0D9
:101A80004FF028096FF07D008246564507DAAAEB31
:101A900006018944B9F1410F01DD4FF041090120F0
:101AA0000021A9F1010200F089F9024628400B4605
:101AB0002140084301D0012100E00021501E029185
:101AC00043F1FF3128402140084301D0012000E0CC
:101AD00000200299834651EA0B014FD000210846AD
:101AE0004FF00000039900F4400039B100EB800092
:101AF0004FF4400100EBD07001EA6000801501282E
:101B000002DD4FF0FF3000E013D0401C36D00298C9
:101B100060B3BBF1000F0CD14A460120002100F058
:101B20004DF928402140084301D0012000E0002069
:101B3000E0B101204A46002100F040F90346401977
:101B40000A4661412D1A8C4111D3B9F1400F09DDCC
:101B5000159810F0240F02D0AAF1340603E0AAF180
:101B6000170600E0761C00254FF0004406E05B1EDF
:101B700042F1FF3220EA030521EA0204CAF1010022
:101B8000B04206DA1B4903980843019000200090F8
:101B90000EE0039AC4F3D321E80A0A43164940EA47
:101BA00044500A433146CDE90002684603F068F923
:101BB000159810F0240F0BD01598C00715D1386870
:101BC000DDE90012031D3B600068C0E900120CE073
:101BD00002A8694603F008F91598C00705D13868CE
:101BE000029A011D3960006802604046F0E600007C
:101BF00002FCFFFF0000F07F0000F03F2DE9FF4FE7
:101C000092461D4685B04FF00041DDE9124BDDE9FB
:101C100014727F1E01EA4B50414940F0FF4940EAEF
:101C20000108002122F020004928049102D04E280A
:101C300028D04CE03BA0012607C88DE80700A96921
:101C40000698641C88477F1E014606D41DF80600CE
:101C500018B121F0200181420BD0E969069888472C
:101C6000032E34D0082E32D06FF0010009B0BDE849
:101C7000F08F761C032E01D0082EE0D1601CCAF82C
:101C80000000DCE7A9690698641C88477F1E2AD4F7
:101C900020F02000412826D1A9690698641C8847B5
:101CA0007F1E20D420F020004E281CD1A969069860
:101CB000641C88477F1E48F4002849F48009CAF84C
:101CC000004001D4282806D0E969069888475FEAD1
:101CD000CB7012D022E0A9690698641C88477F1E49
:101CE00001D4002803DAE96906988847BCE7292867
:101CF000F1D1641CCAF80040E9E71BF0240F07D0BB
:101D000028680499031D2B600068C0E9001805E0ED
:101D10002868021D2A600068C0F800902046A5E7E8
:101D20000000F07F494E46494E49545900000000DA
:101D30000446AFF300802046FEF75DFA4FF0013C09
:101D400050F8042B51F8043B9A4221D1A2EB0C032A
:101D5000934313EACC1317D150F8042B51F8043BEA
:101D60009A4215D1A2EB0C03934313EACC130BD187
:101D700050F8042B51F8043B9A4209D1A2EB0C0312
:101D8000934313EACC13DBD04FF00000704700BF41
:101D9000D01A01BAB1FA81F101F0180122FA01F06A
:101DA000CB40C1F12001DBB2C0B2C01A2CFA01F362
:101DB000D11A914311EAC311E6D17047B2F1200361
:101DC0000AD5C2F1200301FA02F120FA03F300FA66
:101DD00002F041EA0301704700FA03F14FF00000FE
:101DE0007047000001491820ABBEFEE72600020044
:101DF00070475FEA400C08BF91F0000F4FEA8C2358
:101E00004FEAC12243EA51514FEA1C5018BF00F576
:101E1000F0404FEA300018BF41F000415FEA6C5CCF
:101E200000F02980BCF1FF3F08BF40F080407047C0
:101E3000130C06BF12044FF0100C4FF0000C130EE1
:101E400004BF12020CF1080C130F04BF12010CF1B5
:101E5000040C930F04BF92000CF1020CD30F04BFCB
:101E600052000CF1010C11464FF00002A0F11F00CE
:101E7000A0EB0C00704711F0004F08BF704731F025
:101E800000413FF4D5AF0B0C06BF09044FF0100C16
:101E90004FF0000C0B0E04BF09020CF1080C0B0FE5
:101EA00004BF09010CF1040C8B0F04BF89000CF175
:101EB000020CCB0F04BF49000CF1010CCCF1200344
:101EC000A0EB0C0022FA03F302FA0CF241EA030140
:101ED00000F10100704720F07F4C80EA030023F0FE
:101EE0007F47ACEB070303F57C5300F0004003F1A0
:101EF000FF032DE980494FEA154B09B44FEA14431B
:101F000025EA0B4E24EA03480FF2042606EB1327BA
:101F100049083E785FEA320203FB0667C7F500070F
:101F200007FB06F64FEA54374FEAD64606F102069B
:101F300007FB066CCCF1005C4FEA1C472CEA074C0F
:101F400007FB06F40CFB06F504EB15464FEA961664
:101F500034BF00204FF000404FEAD13706FB07FCAA
:101F60004FEA1C4C0CFB0BF7D21B03FB0CF761EB8D
:101F700007010CFB0EF7B0EB074072EB17420CFBAE
:101F800008F734BFA2EB0742B2EB074261EB1741FF
:101F90004FEA0C444FEA910706FB07FC4FEA1C4C42
:101FA0000CFB0BF7B0EBC74072EB573203FB0CF79F
:101FB00034BFA2EBC742B2EBC74261EB57310CFB17
:101FC0000EF7B0EBC70072EB57720CFB08F734BF8B
:101FD000A2EBC702B2EBC70261EB5771039F4FEA56
:101FE000816141EA921104EBCC044FEAD1374FEA08
:101FF000826206FB07FC42EA90124FEA80604FEAD9
:102000001C4C0CFB0BF7D21B03FB0CF761EB07011D
:102010000CFB0EF7B0EB074072EB17420CFB08F716
:1020200034BFA2EB0742B2EB074261EB17414FEA24
:102030008C554FEA910704EB9C2406FB07FC4FEA02
:102040001C4C0CFB0BF7B0EBC74072EB573203FB99
:102050000CF734BFA2EBC742B2EBC74261EB57317A
:102060000CFB0EF7B0EBC70072EB57720CFB08F7D6
:1020700034BFA2EBC702B2EBC70261EB577115EB9D
:102080004C254FEA816141EA92114FEA82624FEAA0
:10209000D13742EA901206FB07FC44F100044FEAF4
:1020A00080604FEA1C4C0CFB0BF7D21B03FB0CF7B8
:1020B00061EB07010CFB0EF7B0EB074072EB174228
:1020C0000CFB08F734BFA2EB0742B2EB074261EB0F
:1020D000174115EB1C154FEA813141EA92414FEA55
:1020E000823242EA90424FEA80304FEA0C7644F165
:1020F000000448EA03434EEA0B484FF0000EB2EBEF
:10210000080C71EB030724BF624639464EEB0E0EF6
:102110004FF0000B0018524149414BEB0B0BB2EB57
:10212000080C71EB03077BF1000B24BF62463946B4
:102130004EEB0E0E4FF0000B0018524149414BEB95
:102140000B0BB2EB080C71EB03077BF1000B24BF08
:10215000624639464EEB0E0E51EA020718BF46F0B2
:10216000010616EB0E7655F1000254F1000103D57D
:10217000BDE88901BDE80088BDE88901BDE80048E7
:10218000B619524141EB0101A3F101037047808070
:102190007F7E7D7C7B7A79787776767574737271C1
:1021A00071706F6E6E6D6C6C6B6A6A696868676679
:1021B00066656464636362616160605F5F5E5E5D0B
:1021C0005D5C5C5B5B5A5A5959585857575656557F
:1021D00055555454535352525251515050504F4FE1
:1021E0004F4E4E4D4D4D4C4C4C4B4B4B4A4A4A4931
:1021F0004949484848474747474646464545454474
:10220000444444434343434242424241414100002B
:1022100046EA0646A3F570534FEA164646EA42568A
:102220004FEAD22242EA415210B54FEAD121A3F13E
:10223000010300F017F820F0004000F1010C00F05D
:10224000004701EB00501146BCF5006F40EA070063
:1022500000D210BD02484FF0000140EA070010BD57
:102260000000F07F002B26D4770021D01CB54FEA68
:10227000370703B44FF010004FF010014FF000008B
:102280000FBCBDE810400BF1010BBBF1010F08BF03
:102290005FEA170722BF12F1010211F101014FF0AD
:1022A000004143F1000300F0004043EA00007047A2
:1022B000F9D35708DAE746EA064613F1400F4FEA2A
:1022C00016461FDD13F1200FDFBF16430A4600211B
:1022D00020335B42C8D0C3F1200746EA064602FA23
:1022E00007F74FEA164646EA0706C3F1200722FA27
:1022F00003F201FA07F721FA03F14FF0000342EA73
:102300000702B1E746EA020646EA06464FEA1646E3
:1023100046EA0106BCBF46EA0646360C4FF000030B
:102320004FF000024FF000019EE72DE9C0489346B0
:1023300030B491E8380007C831EA400C48BF34EAAD
:10234000430C03D5FFF7C7FDFFF78CFFF0BCBDE8DA
:1023500000882DE9C048934630B491E8380007C89A
:1023600031EA400C48BF34EA430C03D5FFF7B3FD14
:10237000FFF74EFFF0BCBDE800882DE9C04893464A
:1023800030B491E8380007C810F0804F08BF13F050
:10239000804F03D100F019F8FFF764FFF0BCBDE8EF
:1023A00000882DE9C048934630B491E8380007C84A
:1023B00010F0804F08BF13F0804F03D100F005F8F4
:1023C000FFF726FFF0BCBDE8008820F07F4780EAD9
:1023D000030023F07F4C07EB0C03A3F57C5300F0C4
:1023E0000040A3F1FE0392F0000F00F0B38095F0DF
:1023F000000F00F077802DE901494FEA11404FEAC4
:10240000144621EA004800FB06FC24EA064708FBC4
:1024100006F607FB08F800FB07F718EB06484CEB3D
:10242000164C4FEA124B18EB07484FEA15464CEB97
:10243000174022EA0B4E0BFB06FC25EA06470EFB73
:1024400006F607FB0EFE0BFB07F71EEB064E4CEBEA
:10245000164C4FF000061EEB074E4CEB174B18EBDB
:102460000B0840F1000018EB0E0B58EB000840F190
:1024700000008F1A4FF000013CBFC943661B14BF18
:10248000B5EB040C00213CBFC943F61B4FEA1744CF
:102490004EEA8E0E27EA04454FEA1C4704FB07620A
:1024A0002CEA074C05FB07F70CFB05F604FB0CFCBC
:1024B00016EB074642EB174216EB0C4642EB1C426A
:1024C0001BEB060658EB0202414146EA9E0601D587
:1024D000BDE80189B619524141EB0101A3F10103A5
:1024E000BDE801894FEA14454FEA114724EA054641
:1024F00021EA074C05FB07F406FB07F70CFB06F186
:1025000005FB0CFC11EB074144EB17444FEA124763
:1025100011EB0C4144EB1C4422EA074C05FB07F28B
:1025200006FB07F70CFB06F605FB0CFC16EB074653
:1025300042EB174216EB0C4642EB1C456A1854F16D
:10254000000148BF7047B619524141EB0101A3F1A8
:102550000103704795F0000F37D04FEA11424FEA60
:10256000144721EA024624EA074C02FB07F106FB66
:1025700007F70CFB06F402FB0CFC14EB074441EBE1
:1025800017414FEA154714EB0C4441EB1C4125EA77
:10259000074C02FB07F506FB07F70CFB06F602FBF0
:1025A0000CFC16EB074645EB174516EB0C4645EBC6
:1025B0001C42121951F1000148BF7047B61952412F
:1025C00041EB0101A3F1010370474FEA14454FEAC3
:1025D000114724EA054621EA074C05FB07F106FBF3
:1025E00007F70CFB06F24FF0000605FB0CFC12EBA4
:1025F000074241EB174112EB0C4251EB1C4148BF23
:102600007047921841EB0101A3F1010370470000EC
:1026100030B5ABB0044620211BA8FEF70DF92346C8
:1026200008224DA102A8FDF70DFE02A8FEF768F8EA
:1026300082B2642302A94E4801F0EEFB00201BADDC
:10264000215C19B12954401C0828F9DB00248DF8BD
:102650007440042247A12846FEF771F828B11BA850
:10266000FEF74EF8082828D062E025AA43A1281DCD
:10267000FDF75EFF01285BD1414D2598686103F0AD
:1026800009FA02460B463FA14248FDF7DBFD4148EF
:10269000FEF736F882B264233E49354801F0BCFBB0
:1026A0003DA23821042001F079FE00224FF4807110
:1026B0003A482C6100F0B9FB37E029A928A8CDE9F8
:1026C000000127AB26AA36A11BA8FDF731FF04287D
:1026D0002ED19DF89820182A2AD29DF89C303C2BA8
:1026E00026D29DF8A050182D22D29DF8A4103C2986
:1026F0001ED223482430027043708470C57001716B
:102700004471CDE900512DA12248FDF79BFD2148E0
:10271000FDF7F6FF82B264231E49154801F07CFBE9
:102720001DA23821042001F039FE01202BB030BD5C
:102730002DA11848FDF7C0FF1648FDF7E1FF82B252
:10274000642314490A4801F067FB2BA238210420B6
:1027500001F024FE0020E9E752656365697665644F
:1027600020646174613A20252E2A730A000000005B
:102770004C02002074656D700000000025660000AA
:102780001800002054454D50205345543A252E3111
:10279000660000009C0100204F4B0000000C01402F
:1027A00025303268687525303268687525303268A2
:1027B00068752530326868750000000054494D4541
:1027C000205345543A2530326868753A25303268CE
:1027D00068753A30302D2530326868753A253032C8
:1027E0006868753A303000004552523A494E5641B9
:1027F0004C494420434D440045525200FEE700003E
:102800002DE9F0414FF0E025074600246E6900F005
:1028100049FC0A49B0FBF1F2A8697A43A9698142EF
:10282000FCD002D2A0EB010002E0A6EB01031844A9
:10283000044408469442F1D3BDE8F08140420F00C1
:1028400010B500F0ADF8442000F0B4F840F2EE20EE
:1028500000F0A8F900F0A4F8BE2000F0ABF800F0FA
:102860005BF8044600F058F8000202B252EA040095
:102870006FF0030401D5C043401C03F0C7F92146A3
:10288000BDE8104003F06BBB1FB520200090002076
:10289000019002906946024800F0C6F91FBD000091
:1028A000001001401FB5202000900120019003205E
:1028B00003906946014800F0B7F91FBD00100140C0
:1028C00070B50024FFF7E0FF124D04E0641CE4B291
:1028D000012002F0E7FA2021284600F0A1FA10B109
:1028E000642CF3D30FE0642C0DD2002404E0641CAC
:1028F000E4B2012002F0D6FA2021284600F090FA36
:1029000018B1F02C04D3012070BDF02CEFD3FAE7FE
:10291000002070BD001001402DE9F0410026124F4B
:10292000354600BFFFF7BEFF00222021384600F0E9
:102930007CFA0A2002F0B6FAFFF7A6FF20213846FB
:1029400000F06EFA01280DD000242D2002F0AAFA22
:10295000AC4034436D1CEDB2E6B2082DE2D33046F4
:10296000BDE8F0810124F0E70010014010B5FFF749
:1029700099FF0A4C00222021204600F056FA40F22E
:10298000EE2002F08FFA01222021204600F04DFABD
:10299000BDE810400F2002F085BA00000010014091
:1029A00010B5FFF7E3FFFFF78BFFBDE81040CC2029
:1029B000AFF3008070B50546FFF774FF144E002496
:1029C00015F0010F4FEA55054FF000024FF02001BE
:1029D00030460BD000F029FA052002F063FA0122FC
:1029E0002021304600F021FA41200AE000F01DFAD3
:1029F000462002F057FA01222021304600F015FA55
:102A0000022002F04FFA641CE4B2082CD8D370BD47
:102A1000001001407047012000F0FAB8082000F0D3
:102A2000F7B8102000F0F4B872B6FEE710B590F8D1
:102A300021100022022905D00421816380F8202082
:102A4000012010BD01680B6823F00E030B600168C4
:102A50000B6823F001030B6090F84030C46B012138
:102A600001FA03F3636080F8211080F820201046FB
:102A700010BD00002DE9F05F90F82110002402291C
:102A800003D004218163012485E001680A6822F0F3
:102A90000E020A6001680A6822F001020A603F4ED5
:102AA0003E4FB215DFF8F4C0DFF8F090DFF8ECA08D
:102AB000DFF8E8B0DFF8E4E00168783F13011502C1
:102AC000ACF1640CA9F15009AAF13C0AABF1280B56
:102AD000AEF1140E4FF48018B14227D9B9420ED08E
:102AE000614512D049451DD0514518D0594518D0DF
:102AF000714501D1424615E0294EB14201D1012272
:102B000010E0274E1436B14201D110220AE0244EC3
:102B10002836B14206D0224A3C32914201D11A46AF
:102B200000E02A461E49091F0A602BE0B94213D073
:102B3000614517D0494522D051451DD059451DD07A
:102B4000714501D142461AE0B14202D14FF0807284
:102B500015E0134EB14201D1012210E0104E14369F
:102B6000B14201D110220AE00D4E2836B14206D002
:102B70000B4A3C32914201D11A4600E02A460749ED
:102B800080394A60012180F82110002180F820104E
:102B9000416B01B188472046BDE8F09F80000240AC
:102BA0000804024070B5044600F044F90546601C74
:102BB00002D004480078044400F03CF9401BA042D5
:102BC000FAD370BD4C00002010B50F4C10280CD06B
:102BD000082809D13220FFF7E5FF2078401C00F0DB
:102BE000030020700120A06010BD3220FFF7DAFF43
:102BF00020690128F8D1022020610022C101BDE82E
:102C00001040024800F011B918000020000C0140EB
:102C1000044910B50A68024202D00860FFF7D4FFE9
:102C200010BD0000140401402DE9F84FDFF8C891F1
:102C30000024A9F1040B23460F2709F1040AABF184
:102C4000040ED1E00125A54006EA0502AA4276D18C
:102C5000DFF8A8C14E68A6EB0C0866452BD00DDC4A
:102C6000032E34D005DC36B3012E19D0022E2FD11D
:102C70001BE0112E16D0122E2AD119E0B8F5881FAC
:102C800019D006DCB8F5803F15D0B8F5801F1FD1EC
:102C900011E0B8F5001F0ED0B8F5041F18D10AE0F6
:102CA000CB6815E0CB681B1D12E0CB6808330FE042
:102CB000CB680C330CE08B682BB1012B4FF0080371
:102CC00003D0456104E0042302E0056100E0002335
:102CD000FF2A01D8064601E000F104064FEA840508
:102CE00001D9A5F12005D6F8008007FA05FC28EAED
:102CF0000C0803FA05F548EA0508C6F800804D6897
:102D0000ED0070D53E4DAE6946F00106AE61AD698D
:102D100024F0030605F0010500953A4D06EB050C7D
:102D2000DCF80850A607360F07FA06F825EA08056A
:102D3000DFF8D480404503D14FF0000825E052E091
:102D4000DFF8C880404502D14FF001081DE0DFF8F0
:102D5000C080404502D14FF0020816E0DFF8B48091
:102D6000404502D14FF003080FE0DFF8AC8040454A
:102D700002D14FF0040808E0DFF8A080404502D1FE
:102D80004FF0050801E04FF0060808FA06F848EA97
:102D90000508CCF808804D68D9F80060ED024D4672
:102DA00001D5164300E096432E604D68DAF80060C6
:102DB000AD02554601D5164300E096432E604D689E
:102DC000DBF80060AD035D4601D5164300E0964395
:102DD0002E604D68DEF80060ED03754601D51643A0
:102DE00000E096432E60641C0A681646E2407FF4B9
:102DF00029AFBDE8F88F0000080401400000111061
:102E0000001002400000014000080140000C014099
:102E1000001001400014014000180140001C014056
:102E20008068084000D0012070470AB101617047F6
:102E30000904FBE701488068704700004C0000204F
:102E40000248816802781144816070474C0000207C
:102E5000074810B5016841F010010160032000F03F
:102E600079F8002000F006F800F024F8002010BDEA
:102E70000020024070B50D4D04464FF47A71287859
:102E8000B1FBF0F00A490968B1FBF0F000F0E6FA96
:102E900048B9102C07D200222146501E00F03AF803
:102EA00000206C6070BD012070BD00004C0000204F
:102EB000580000200E4808B5816941F00101816188
:102EC000816901F001010091C16941F08051C16146
:102ED000C06900F080500090052000F03BF80548E4
:102EE000416821F0E06141F00071416008BD0000DF
:102EF0000010024000000140002809DB00F01F0222
:102F0000012191404009800000F1E020C0F800114B
:102F100070470000F0B40E4B1B680C46C3F302234D
:102F2000C3F10705042D00D90425191D072901D275
:102F3000002300E0DB1E012606FA05F1491E2140B0
:102F400099409E40761E16403143F0BC01F02DBFE3
:102F50000CED00E0064900F0070208684FF6FF0399
:102F6000184040EA0220034A1043086070470000FE
:102F70000CED00E00000FA052DE9F0470F460500D2
:102F800061D0434E306800F00700B84209D2306883
:102F900020F0070038433060306800F00700B84286
:102FA00051D128683B4C810712D5400703D5606892
:102FB00040F4E06060602878000703D5606840F462
:102FC000605060606068A96820F0F00008436060AD
:102FD0002878C00728D06868012810D02168022806
:102FE00010D0890700292EDA616821F0030101431E
:102FF0006160FFF71FFF804641F288390DE02168CC
:103000008903EFE78901EDE7FFF714FFA0EB080163
:10301000494502D90320BDE8F0876068696800F07F
:103020000C00B0EB810FEFD1306800F00700B84220
:103030000BD9306820F0070038433060306800F06A
:103040000700B84201D00120E5E72878400705D500
:103050006068E96820F4E060084360602878000751
:1030600006D56068296920F4605040EAC1006060BC
:1030700000F03EF86168084AC1F30311515CC84092
:103080000649086006480068FFF7F4FE0020C2E722
:103090000020024000100240FA6D00085800002095
:1030A00050000020014800687047000058000020D0
:1030B0000448054900684968044AC1F30221515C8B
:1030C000C840704758000020001002400A6E0008F7
:1030D0000448054900684968044AC1F3C221515CAB
:1030E000C840704758000020001002400A6E0008D7
:1030F0000E4A51680E4801F00C03042B11D0082B26
:103100000FD10C48C1F38343C903C05C0AD5516891
:10311000084AC1F34041921E515C054A5043B0FB3E
:10312000F1F0704704494843704700000010024026
:1031300000127A00EA6D000800093D002DE9F84F01
:10314000040070D02078C04DC00749D06868C0F333
:103150008100012807D06868C0F38100022809D1E6
:103160006868C00306D52868800339D560680028E0
:10317000E7D035E06068B0F5803F0BD010B1B0F516
:10318000A02F11D0286820F480302860286820F40F
:10319000802002E0286840F480302860606890B1A8
:1031A000FFF748FE06460AE0286840F480202860C1
:1031B000F0E700BFFFF73EFE801B642873D8286845
:1031C0008003F7D50CE0FFF735FE064605E000BFAB
:1031D000FFF730FE801B6428F0D828688003F7D4FE
:1031E00020789A4E80074FF001094FF0000839D53A
:1031F000686810F00C0F07D06868C0F381000228DF
:1032000009D16868C00306D42868800714D52069EE
:10321000012808D110E02069B0B1C6F80090FFF78E
:1032200009FE074605E00AE1FFF704FEC01B02287D
:10323000C4D828688007F7D52868616920F0F800AD
:1032400040EAC10028600DE0C6F80080FFF7F2FDFB
:10325000074604E0FFF7EEFDC01B022823D82868CC
:103260008007F7D4207800072CD57948A169D9B117
:10327000C0F80090FFF7DEFD074604E0FFF7DAFD37
:10328000C01B02280FD8686A8007F7D571484FF431
:10329000FA510068B0FBF1F0009000BF0098411EA9
:1032A0000091FAD20EE080E0C0F80080FFF7C2FD86
:1032B000074604E0FFF7BEFDC01B022875D8686A08
:1032C0008007F7D42078400760D5E8690027C00060
:1032D00008D4E86940F08050E861E869012700F00F
:1032E000805000905C480168C90513D4016883468A
:1032F00041F480710160FFF79DFD824606E000BF4A
:10330000FFF798FDA0EB0A0064284ED8DBF8000018
:10331000C005F5D5E06801280AD008B1052813D00A
:10332000286A20F001002862286A20F0040002E0E8
:10333000286A40F001002862E06841F2883B98B1B9
:10334000FFF778FD82460BE0286A40F0040028620F
:10335000EEE700BFFFF76EFDA0EB0A0159455AD812
:10336000286A8007F6D50CE0FFF764FD824605E089
:10337000FFF760FDA0EB0A0159454CD8286A800789
:10338000F6D41FB1E86920F08050E861E06988B3A5
:103390006968C1F38101022944D00228C6F860801F
:1033A00004D0FFF747FD044638E034E0FFF742FD64
:1033B000074604E0FFF73EFDC01B02282BD8286813
:1033C0008001F7D4206AB0F5803F05D16868A16814
:1033D00020F4003008436860D4E9080108436968B4
:1033E00021F4741108436860C6F86090FFF722FD6D
:1033F000044606E025E000BFFFF71CFD001B022885
:1034000009D828688001F7D51BE000BFFFF712FD3F
:10341000001B022802D90320BDE8F88F286880012C
:10342000F4D40EE00128F7D06868226A00F48031F5
:10343000914204D1616A00F47010884201D00120E9
:10344000EAE70020E8E700000010024000004242E6
:1034500080044242580000200070004010B5401E19
:10346000B0F1807F01D3012010BD4FF0E0246061F6
:103470000F21601701F099FC0020A0610720206156
:10348000002010BD7047704770B590F83C20012AAD
:103490002CD0012480F83C40022280F83D200368B3
:1034A0005A689D6822F070060A6832435A60104BD1
:1034B00002689A420ED00F4B9A420BD0B2F1804F65
:1034C00008D00D4B9A4205D00C4B9A4202D00C4BBF
:1034D0009A4204D1496825F080031943916080F82D
:1034E0003D40002180F83C10084670BD022070BDB0
:1034F000002C01400034014000040040000800405E
:10350000000C004010B5040003D094F83D0010B149
:1035100007E0012010BD002084F83C00204600F0A8
:103520001FF8022084F83D00211D206801F052F9A7
:10353000012084F8460084F83E0084F83F0084F8B7
:10354000400084F8410084F8420084F8430084F885
:10355000440084F8450084F83D00002010BD0000C0
:1035600008B5114A01681148914208D1816941F4B6
:1035700000618161806900F40060009008BD0C4A20
:103580009142FBD1C16941F00201C161C0690022D1
:1035900000F00200009011461D20FFF7BBFCBDE8C3
:1035A00008401D20FFF7A8BC002C0140001002407D
:1035B0000004004090F83D10012901D0012070471F
:1035C000022180F83D1000680E4988420ED00E4955
:1035D00088420BD0B0F1804F08D00C49884205D00A
:1035E0000B49884202D00B49884204D1816801F01E
:1035F0000701062903D0016841F0010101600020A4
:1036000070470000002C01400034014000040040DD
:1036100000080040000C004001680A6A41F21113E2
:103620001A4207D10A6A9B101A4203D10A6822F093
:1036300001020A60012180F83D100020704770B53A
:10364000044690F83C000025012817D0012684F894
:103650003C60022084F83D002068826822F07702F6
:1036600022F47F4282600868502838D00DDC202880
:103670004FD005DC90B3102811D14AE0022070BD74
:10368000302846D040280AD13BE060282FD070284F
:103690000DD0B0F5805F03D0B0F5005F12D00125EA
:1036A00084F83D60002084F83C00284670BDCB685B
:1036B000D1E90121206801F0E8F82068816841F033
:1036C000770109E0CB68D1E90121206801F0DDF83C
:1036D0002068816841F480418160E1E719E0CA68AF
:1036E0004968206801F0A6F95021206806E0CA6800
:1036F0004968206801F0AFF96021206801F0CFF837
:10370000CEE7CA684968206801F094F94021206832
:10371000F4E7226801461046F0E770472DE9F041D2
:1037200004460068C66805694FF00007A90713D56D
:10373000B10711D5F91E0161012020772068806949
:103740008007204602D0FFF7E8FF04E000F0A4F86D
:10375000204600F036F92777680716D5700714D58C
:1037600021686FF0040008610220207720688069DA
:1037700010F4407F204602D0FFF7CFFF04E000F0B6
:103780008BF8204600F01DF92777280715D530075C
:1037900013D521686FF008000861042020772068A5
:1037A000C0698007204602D0FFF7B7FF04E000F0B1
:1037B00073F8204600F005F92777E80616D5F006DD
:1037C00014D521686FF01000086108202077206868
:1037D000C06910F4407F204602D0FFF79EFF04E04E
:1037E00000F05AF8204600F0ECF82777E80708D0F8
:1037F000F00706D021686FF001000861204600F054
:103800003BF9280608D5300606D521686FF0800000
:1038100008612046FFF736FE680608D5700606D513
:1038200021686FF040000861204600F026F9A806E4
:103830000AD5B00608D521686FF02000086120463F
:10384000BDE8F041FFF71FBEBDE8F08100B585B0CF
:103850000021009101910291039100680B49884277
:1038600011D10B48816941F0040181618069694689
:1038700000F004000490802000900220019003904A
:103880000448FFF7D1F905B000BD00000004004076
:103890000010024000080140704770B5044690F8DF
:1038A0003C0000260D4601280FD0012084F83C0082
:1038B0006AB1042A1DD0082A2FD00C2A3FD0012635
:1038C000002084F83C00304670BD022070BD2068A6
:1038D00000F0EEFF2068816941F0080181612068F5
:1038E000816921F004018161206881692A6911439D
:1038F00011E0206801F00CF82068816941F4006152
:1039000081612068816921F4806181612068816919
:103910002A6941EA02218161D2E7206801F02EF88C
:103920002068C16941F00801C1612068C16921F0C6
:103930000401C1612068C1692A69114311E020684E
:1039400001F050F82068C16941F40061C16120684C
:10395000C16921F48061C1612068C1692A6941EAB5
:103960000221C161ACE710B5040003D094F83D001A
:1039700010B107E0012010BD002084F83C00204673
:1039800000F01EF8022084F83D00211D206800F0A0
:1039900021FF012084F8460084F83E0084F83F00AF
:1039A00084F8400084F8410084F8420084F8430021
:1039B00084F8440084F8450084F83D00002010BDE0
:1039C0007047704710B50446022249B104290ED051
:1039D000082913D094F84100012816D0012010BD09
:1039E00094F83E000128F9D184F83E200FE094F8C5
:1039F0003F000128F2D184F83F2008E094F840000D
:103A00000128EBD184F8402001E084F84120012214
:103A1000206800F02DFF13492068134A884201D026
:103A2000904203D1436C43F40043436420688842CE
:103A30000DD090420BD0B0F1804F08D00B49884296
:103A400005D00B49884202D00A49884204D18168D6
:103A500001F00701062903D0016841F0010101606E
:103A6000002010BD002C0140003401400004004043
:103A700000080040000C00407047704770477047D6
:103A8000F8B5016804460868CA684B6910F00F0F62
:103A90004FF000055AD003F0010602F49077374347
:103AA00065D0C10705D0D10503D5616C41F0010196
:103AB0006164410705D5D90703D0616C41F002016B
:103AC0006164810705D5D90703D0616C41F0040119
:103AD0006164010707D502F02001314303D0616C16
:103AE00041F008016164616C00293BD0800604D577
:103AF000900602D5204600F0EFFF20684069616C17
:103B0000C0F3801001F00801014320462BD000F0E3
:103B1000BCFF20684069400621D52068143050E879
:103B2000001F21F0400140E80012002AF5D1E06BAF
:103B3000A8B16D494163E06BFEF79CFF002811D0EE
:103B4000E06B416B01B0BDE8F040084783060ED53D
:103B500093060CD52046BDE8F84000F0BDBF2046D6
:103B6000FFF78DFFF8BDFFF78AFF6564F8BD266B90
:103B70002023012E7CD1C6067AD5D60678D50868D2
:103B80004868009048694FF00206400640D5E16B56
:103B9000086840680004000CE8D0A28D8242E5D994
:103BA000E085886920282DD020680C3050E8001F5F
:103BB00021F4807140E80012002AF5D12168143107
:103BC00051E8000F20F0010041E80002002AF5D181
:103BD0002068143050E8001F21F0400140E8001236
:103BE000002AF5D184F84230256320680C3050E873
:103BF000001F21F0100140E80012002AF5D1E06B0F
:103C0000FEF714FF6663A08DE18D401A81B22AE0B1
:103C1000A08DE18D401A81B2E08D0028A6D0002948
:103C2000A4D022680C3252E8000F20F4907042E8D1
:103C30000007002FF5D12068143050E8002F22F043
:103C4000010240E80027002FF5D184F842302563B7
:103C500020680C3050E8002F22F0100240E80023CA
:103C6000002BF5D166632046FFF708FFF8BDFFE79C
:103C700005062BD5150629D594F841002128F5D144
:103C8000A068B0F5805F01D12069B0B1206A411C05
:103C90002162216800784860E08C401E0004000C1E
:103CA000E084E3D12068C16821F08001C160206810
:103CB000C16841F04001C160D8E7206A0088C0F3C4
:103CC00008004860206A801C2062E5E74006CDD5E8
:103CD0005006CBD5CA68204622F04002CA6084F85C
:103CE000413000F0E9F8C1E77B4A000870B50400F4
:103CF00004D094F84100002510B106E0012070BD09
:103D000084F84050204600F023F8242084F8410035
:103D10002068C16821F40051C160204600F03EFFD8
:103D20002068016921F4904101612068416921F016
:103D30002A0141612068C16841F40051C160656495
:103D4000202084F8410084F842006563002070BDA3
:103D500030B585B000240094019402940394006867
:103D6000184988422BD11848C16941F40031C1611A
:103D7000C16901F400310491816941F0040181615C
:103D80008069124D00F0040004900420009002208D
:103D900001900320039069462846FEF745FF08205E
:103DA000CDE90004694628460294FEF73DFF002253
:103DB00011462620FFF7AEF82620FFF79DF805B044
:103DC00030BD0000004400400010024000080140E7
:103DD00090F84230202B01D00220704721B11AB157
:103DE0000023036300F036BF012070470749884273
:103DF0000AD10749002008720649012008224870AC
:103E000003490248FFF7E4BF704700004C0200205E
:103E10009C000020180000202DE9F843044690F88B
:103E20004100984616460D46202802D00220BDE8E3
:103E3000F88385B17EB100206064212084F84100C0
:103E4000FEF7F8FFA6848146E684A0682027B0F537
:103E5000805F02D003E00120E9E7206910B12E461F
:103E600000250EE000260CE08021204600F00DFF2A
:103E7000A8B9C6B116F8010B21684860E08C401E55
:103E8000E084E08C4B464FF00002CDF80080002823
:103E9000EAD14FF04001204600F0F7FE40B184F82F
:103EA00041700320C3E735F8020BC0F30800E3E7D5
:103EB00084F841700020BAE77047FEE72DE9F04131
:103EC0000546012000F032F8174F4FF480660022BB
:103ED00031463846FEF7A9FF00244FF40068280653
:103EE00001D4002200E0012241463846FEF79DFF42
:103EF0006806050E0220FEF783FC01223146384693
:103F0000FEF793FF0220FEF77BFC00223146384685
:103F1000FEF78BFF0220FEF773FC641CE4B2082C52
:103F2000DDD3BDE8F0810000000C01401FB5064B59
:103F30001968D3E90223CDE9001069460348CDE9A9
:103F40000223FEF771FE1FBDE85F0008000C014070
:103F500010B50120FFF7EAFF0C4C01224FF440613D
:103F60002046FEF762FF0420FEF74AFC0022E1141F
:103F70002046FEF75AFF0420FEF742FC00222115DE
:103F80002046BDE81040FEF750BF0000000C014085
:103F900010B50120FFF7CAFF0C4C00224FF440611E
:103FA0002046FEF742FF012291022046FEF73DFF28
:103FB0000420FEF725FC0122D1022046FEF735FF42
:103FC000BDE810400420FEF71BBC0000000C0140BF
:103FD0002DE9F04100242046FFF7A8FF0122144DEF
:103FE000D60231462846FEF720FF0120FEF708FCE6
:103FF0000122970239462846FEF717FF0120FEF7F7
:10400000FFFB08E0641CE4B2FA2C04D9FFF7C0FF00
:104010000120BDE8F08131462846FEF701FF002867
:10402000F0D1002239462846FEF7FFFE0020F0E7D7
:10403000000C014010B500F0F7FF05480549C078B5
:10404000CA78904202D0C870012010BD002010BD77
:1040500007000020180000202DE9F04F85B0002552
:1040600047480095019502950395816941F040010B
:104070008161816901F040010491816941F004018D
:104080008161816901F004010491816941F01001AD
:104090008161816901F010010491816941F0080199
:1040A00081618069DFF8DCA000F008000490002244
:1040B00070215046FEF7B9FEDFF8CCB00122202176
:1040C0005846FEF7B2FE4FF44268012241462F489F
:1040D000FEF7ABFE4FF48079002249462B48FEF7ED
:1040E000A4FE182000902A480124CDE90104694665
:1040F0002848FEF799FD28480226CDE90040694688
:1041000002965046FEF790FD702003278DE8B1001F
:1041100069465046FEF788FD20208DE8710069460B
:104120005846FEF781FD01AACDF8008082E8B00074
:1041300069461648FEF778FD01AACDF8009082E89E
:10414000700069461148FEF76FFD002211460620F7
:10415000FEF7E0FE0620FEF7CFFE01221146092001
:10416000FEF7D8FE0920FEF7C7FE022211460A20FC
:10417000FEF7D0FE0A20FEF7BFFE05B0BDE8F08FC7
:10418000001002400008014000100140000C0140F6
:1041900000002110001801400000111010B586B079
:1041A0000024174800940194029403940494134942
:1041B000059401604721C0E901144FF6FF71C0E981
:1041C000031444618461FFF79DF908B1FEF72CFCEC
:1041D0004FF48050009069460948FFF730FA08B163
:1041E000FEF722FC049404A905480594FFF74CF956
:1041F000002801D0FEF718FC06B010BD002C0140CD
:10420000BC01002010B58EB00024079408940994D6
:104210000A940B941C2168460C94FCF70DFB1F4874
:104220001D4901604721C0E9011440F2E731C0E9AE
:1042300003148461FFF766F908B1FEF7F5FB4FF44C
:104240008050079007A91548FFF7F9F908B1FEF764
:10425000EBFB1248FFF787FB08B1FEF7E5FB0B9479
:104260000BA90E480C94FFF70FF908B1FEF7DCFB21
:104270006020CDE9000402200290042269460494E3
:104280000648FFF70AFB08B1FEF7CEFB0348FFF72D
:10429000DDFA0EB010BD0000000400400402002052
:1042A0000C4810B50A4901604FF4165141600021D5
:1042B00081600C22C160C0E904128161C161FFF715
:1042C00015FD002803D0BDE81040FEF7ADBB10BDC2
:1042D000004400404C020020FEE7FEE770B5A0B0AD
:1042E000002426466D460021204600F095F850B97E
:1042F00000216E54491CC9B28029FAD38021684636
:1043000000F0C5F810B1012020B070BD641CE4B20B
:10431000082CE8D30020F7E72DE9F0410E4F1646B0
:104320008846054600244146284600F075F838B90D
:1043300004EB460007EB4010102100F0A8F810B184
:104340000120BDE8F0816D1C641CE4B2EDB2022CCA
:10435000E9D30020F5E70000E86500082DE9F04109
:1043600005460D480F46002400EB02163946284644
:1043700000F052F828B906EBC400082100F087F8D5
:1043800010B10120BDE8F0816D1C641CE4B2EDB2F7
:10439000022CEBD30020F5E7F85F000870B5144657
:1043A0000D4606460AE0D2B229463046FFF7D6FF50
:1043B00008B1012070BD0835EDB2641C2278203AA6
:1043C0005E2AF0D9002070BD00B587B018220CA17C
:1043D0006846FCF7FFF91521684600F035F858B932
:1043E000FFF77CFF40B9AF208DF80000012168463F
:1043F00000F02AF8002800D0012007B000BD00001E
:10440000AED580A83FD300408D14A1C8DA1281EF49
:10441000D9F1DB40A600000008B5072801D87F29A4
:1044200001D9012008BDB0308DF80000102000EB4C
:1044300011108DF8020001F00F008DF8010003212A
:10444000684600F001F808BD70B50D460646FFF756
:104450007FFD7820FFF732FDFFF7BAFD68B9002035
:10446000FFF72CFDFFF7B4FD38B9002409E0305DFB
:10447000FFF724FDFFF7ACFD08B1012070BD641CFF
:10448000A4B2AC42F3D3FFF783FD002070BD70B53A
:104490000D460646FFF75CFD7820FFF70FFDFFF79E
:1044A00097FD68B94020FFF709FDFFF791FD38B986
:1044B000002409E0305DFFF701FDFFF789FD08B139
:1044C000012070BD641CA4B2AC42F3D3FFF760FDC1
:1044D000002070BD7047704770B51A4C00250C2045
:1044E00025716571A071C2B261792079FFF714FF5F
:1044F000607910306071A079401CC0B2A0710E28A4
:10450000F1D311A200210220FFF748FF607920308B
:1045100060716078012814D165700D4A2021022055
:10452000FFF73CFF0BA200210420FFF737FF0848EC
:10453000FEF76EF8BDE87040052205490748FFF711
:1045400047BC70BD180000205265633A00000000AF
:104550009C000020726573756C743A004C02002058
:1045600070B51C4C002525716571A571A279617922
:104570002079FFF7D1FE607910306071A079401C7E
:10458000C0B2A0710628F1D300F04EFD124A0021FE
:104590000220FFF703FF114A00210420FFF7FEFE6F
:1045A000062020716571A571A27961792079FFF7E4
:1045B000B3FE607910306071A079401CC0B2A07168
:1045C0000228F1D3BDE870402021054A0620FFF7FC
:1045D000E5BE0000180000205C0000200E00002056
:1045E0007C00002010B5234C8AB023A1227802A8B9
:1045F000FBF728FE002102AA0846FFF7CFFE6068FD
:1046000001F048FA637B227BCDE9002302460B468A
:104610001CA102A8FBF716FE02AA00210220FFF748
:10462000BDFEA06801F036FA237CE27BCDE90023D1
:1046300002460B4618A102A8FBF704FE02AA0021BD
:104640000420FFF7ABFE194C062000212071617198
:10465000A071C2B261792079FFF75EFE60791030F7
:104660006071A079401CC0B2A0710C28F1D30AB0CF
:1046700010BD000068000020546F6461793A256421
:1046800000000000483A252E316643202530326470
:104690003A253032640000004C3A252E3166432022
:1046A000253032643A2530326400000018000020C2
:1046B00030B51E4C89B00020207160710E20A071B1
:1046C000C2B261792079FFF727FE607910306071FE
:1046D000A079401CC0B2A0711028F1D3134D14A1D1
:1046E000243568466B782A78FBF7ACFD6A460021D2
:1046F0000220FFF753FE2B79EA7812A16846FBF7F8
:10470000A1FD6A4600210420FFF748FE606901F020
:10471000C1F902460B460FA16846FBF793FD6A46B6
:1047200000210620FFF73AFE09B030BD1800002036
:1047300053746172743A20253032643A2530326401
:1047400000000000456E643A20253032643A25307E
:104750003264000054656D703A20252E3166C2B077
:1047600043000000FEF76CBB30B58FB028216846CF
:10477000FCF762F814210AA8FCF75EF8012108048E
:10478000CDE900100024029402250491CDE90750E0
:104790004FF4E01009906846FEF7D0FC08B172B6FD
:1047A000FEE70F20CDE90A054FF48060CDE90C400B
:1047B00002210AA80E94FEF7DFFB002801D072B692
:1047C000FEE70FB030BD70470148FEF7A7BF0000FD
:1047D00004020020F0B50268204C214D214E224FEA
:1047E000224B4FF0804CA04209D0984207D0604540
:1047F00005D0A84203D0B04201D0B84204D122F083
:10480000700E4A6842EA0E02A04209D0984207D0D0
:10481000604505D0A84203D0B04201D0B84203D1D0
:1048200022F44075CA682A434D6922F080022A4367
:1048300002608A68C2620A688262A04201D098421D
:1048400001D109690163012141610169C90703D0EF
:10485000016921F001010161F0BD0000002C01405F
:104860000004004000080040000C004000340140FB
:1048700010B501F01F030121046A99408C430462C2
:10488000016A9A401143016210BD10B5846842EA82
:10489000032224F47F440A432243826010BD8268CD
:1048A00022F070020A4342F0070181607047000065
:1048B000F0B5036A026A22F001020262426884696A
:1048C000124E24F073050C682C4323F002058B680C
:1048D0002B430D4DA84201D0B04205D123F008076B
:1048E000CB683B4323F00403A84201D0B04205D17A
:1048F0004D6922F4407215438A692A4342608461FB
:10490000496841630362F0BD002C0140003401405E
:10491000F0B5026A036A23F01003036243688469F6
:104920000D6824F4E64444EA05248D6822F0200250
:1049300042EA05120F4D104EA84201D0B04206D1F6
:10494000CF6822F0800242EA071222F04002A84219
:1049500001D0B04207D14D6923F4406343EA850397
:104960008D6943EA8503436084614968816302621B
:10497000F0BD0000002C014000340140F0B5026A97
:10498000036A23F4807303624368C46922F40072EB
:1049900024F073050C68124E2C438D6842EA052200
:1049A0000E4DA84201D0B04206D1CF6822F4006279
:1049B00042EA072222F48062A84201D0B04207D125
:1049C0004D6923F4405343EA05138D6943EA051307
:1049D0004360C4614968C1630262F0BD002C0140BC
:1049E0000034014030B5046A026A22F48052026247
:1049F0004268C3690D6823F4E64343EA05238D68E2
:104A000024F4005444EA0534084DA84202D0084D6D
:104A1000A84204D14D6922F4804242EA85124260E4
:104A2000C36149680164046230BD0000002C01408C
:104A30000034014010B5036A046A24F001040462E2
:104A4000846924F0F00444EA021423F00A020A43C1
:104A50008461026210BD10B5036A046A24F0100478
:104A60000462846923F0A00324F4704444EA02320F
:104A700043EA01118261016210BD10B5406A002154
:104A8000C185C184FEF7FBFF10BD01680C3151E800
:104A9000002F22F4907241E80023002BF5D1016829
:104AA000143151E8002F22F0010241E80023002BCD
:104AB000F5D1016B012909D101680C3151E8002FB2
:104AC00022F0100241E80023002BF5D1202180F8CC
:104AD000421000210163704708B590F84210222966
:104AE00001D0022008BD82684FF480539A4201D160
:104AF000016921B1816A9A421BD04AB10AE0026879
:104B0000816A5268C2F308020A80816A891C08E03F
:104B1000026972B10268526802F07F020A70816A0B
:104B2000491C8162C18D491E0904090CC18503D04D
:104B30001BE002685268F1E70168CA6822F02002AF
:104B4000CA600168CA6822F48072CA6001684A6952
:104B500022F001024A61202180F8421000214163C5
:104B6000026B012A03D0FFF741F9002008BD016361
:104B700001680C3151E8002F22F0100241E80023B7
:104B8000002BF5D101680A68D20602D50A68496887
:104B90000091818DFEF772FFE7E7000070B50446D3
:104BA00000680169E26821F4405111430161216903
:104BB000A0680843616908432168CA6841F20C6330
:104BC0009A430243CA6020684169A26921F4407196
:104BD000114341611E492068884202D1FEF778FAEC
:104BE00001E0FEF765FA00EBC00101EB001260681E
:104BF00064218000B2FBF0F3B3FBF1F36FF0180611
:104C00007343B2FBF0F5B2FBF0F605EB83053223FC
:104C100003EB0515B5FBF1F5B6FBF1F605F0F00574
:104C200005EB0615B2FBF0F6B2FBF0F0B0FBF1F0CD
:104C30006FF01802504306EB800003EB0010B0FB4E
:104C4000F1F0216800F00F002844886070BD00007A
:104C50000038014081628285C285002141642221A1
:104C600080F84210016921B10168CA6842F480727B
:104C7000CA6001684A6942F001024A610068C1687D
:104C800041F02001C160002070472DE9F8439846AB
:104C900017460D460446089E24E0701C22D0FEF7FD
:104CA000C9F8A0EB0800B0421AD8CEB12068C1689C
:104CB000490717D5802D15D0402D13D00168C94361
:104CC00009070FD401680025406800902046FFF7CF
:104CD000DCFE0820606484F840500120BDE8F883C1
:104CE0000320FBE72068006835EA000004D00020BC
:104CF000B842D2D00020F1E70120F9E70148FEF7E1
:104D0000BFBE00004C02002070B50646FFF792F9C6
:104D1000174D184C78B1E878207017486060174834
:104D2000A060A8782073697861732A78A273E07311
:104D30002174627470BD3046616800F0FEFF09D2D4
:104D4000666000F071F9A87820736878607328783D
:104D5000A07370BD3046A16800F070FFF9D2A66064
:104D6000A878E073687820742878607470BD0000BB
:104D700007000020680000200000C8C20000C842F0
:104D8000FEE7490050EAC12018BF04204A0D18BFB1
:104D900040F0010040F2FF72B2EB515F08BF40F0FB
:104DA0000200012808BF052070470907090E0028E6
:104DB00004DB00F1E02080F80014704700F00F00E1
:104DC00000F1E02080F8141D704740F2013200200D
:104DD0004FF0E04101F095B8024A0020110701F0C0
:104DE00090B8000001FDFFFF10B50446D1E90001B5
:104DF00000F002F8206010BDF8B504460D466A4682
:104E000000F07CFA00987E30009000281FDC002221
:104E100013462046294600F061FC18D0002140F6D8
:104E200008004FF0000006462046294600F010FC1E
:104E3000044640F6080006EA00014FF0000034F096
:104E4000004004BF0220FCF746FD2046F8BD009854
:104E5000FF280DDB0220FCF73EFD00221346204612
:104E6000294600F0E1FD8CBF04484FF0FF40F8BD3B
:104E700020462946BDE8F84000F0EABB000080FF6C
:104E800010B504460A46D4E90003194600F098FA22
:104E9000C4E9000110BD30380A2801D20120704752
:104EA0000020704770B5094C054600202168486213
:104EB0002046FEF77FFB2068416A89B2A942FBD3F6
:104EC000BDE870400148FEF7A7BB000004020020C7
:104ED00000B585B0002001900290039008488169D8
:104EE00041F0040181618069694600F0040004908A
:104EF000202000900348FDF797FE05B000BD00009C
:104F0000001002400008014030B585B00024104870
:104F10000094019402940394816941F00401816139
:104F200080690C4D00F004000490224620212846A0
:104F3000FDF77BFF202000900120CDE90104022035
:104F4000039069462846FDF76FFE05B030BD0000AE
:104F5000001002400008014070B5054600218E2077
:104F600000F076F928780A24B0FBF4F104FB110173
:104F7000B0FBF4F001EB0010C1B2802000F068F942
:104F80006878B0FBF4F104FB1101B0FBF4F001EB25
:104F90000010C1B2822000F05BF9A878B0FBF4F1F8
:104FA00004FB1101B0FBF4F001EB0010C1B284204E
:104FB00000F04EF9E878B0FBF4F104FB1101B0FB0E
:104FC000F4F001EB0010C1B2862000F041F928791D
:104FD000B0FBF4F104FB1101B0FBF4F001EB0010A5
:104FE000C1B2882000F034F96879B0FBF4F104FB19
:104FF0001101B0FBF4F001EB0010C1B28A2000F007
:1050000027F9A879B0FBF4F104FB1101B0FBF4F02F
:1050100001EB0010C1B28C2000F01AF9BDE870401D
:1050200080218E2000F014B92DE9F04100F0EEF857
:105030004B48017801F00F02090901EB810102EBF5
:105040004101CCB2C11D0C70427802F00F0312096D
:1050500002EB820203EB4202D3B24B70827802F081
:105060000F05120902EB820205EB4202D2B28A70EE
:10507000C57805F00F062D0905EB850506EB4505FE
:10508000EDB2CD70067906F00F07360906EB8606FD
:1050900007EB4606F6B20E71477907F00F0C3F0991
:1050A00007EB87070CEB47074F71807900F00F077C
:1050B000000900EB800007EB4000C7B28F7129495F
:1050C00032200870302048700A20B7FBF0FC0CF149
:1050D000300C81F802C0B7FBF0FC00FB1C77B6FB7C
:1050E000F0FC3037CF702D270F710CF1300C81F8A8
:1050F00005C0B6FBF0FC00FB1C6630368E71B5FBBC
:10510000F0F6CF7130360E72B5FBF0F600FB165597
:1051100030354D72B2FBF0F5114930350E310D705E
:10512000B2FBF0F500FB1522B3FBF0F530324A700C
:105130003A228A703035CD70B3FBF0F500FB1533A1
:1051400030330B714A71B4FBF0F230328A71B4FB28
:10515000F0F200FB12403030C871BDE8F081000071
:10516000000000205C0000202DE9F0410025264FC2
:1051700006462C462A4640213846FDF756FE0022B8
:1051800010213846FDF751FE0320FDF739FB0122BF
:1051900040213846FDF749FE0320FDF731FB30463C
:1051A00000F086F8FFF794FE3E460220FDF728FB4C
:1051B0006408012210213046FDF737FE0420FDF778
:1051C0001FFB002210213046FDF72FFE0E20FDF7B9
:1051D00017FB20213046FDF723FE08B144F0800480
:1051E0006D1CEDB2082DE0D30220FDF709FB002273
:1051F00040213046FDF719FE002220213046FDF700
:1052000014FE2046BDE8F0810008014010B5812061
:10521000FFF7AAFF0D4C20708320FFF7A5FF6070F9
:105220008520FFF7A1FFA0708720FFF79DFFE070AA
:105230008920FFF799FF20718B20FFF795FF6071A0
:105240008D20FFF791FFA07110BD0000000000202D
:1052500070B5164E04460D46002240213046FDF73B
:10526000E4FD002210213046FDF7DFFD0120FDF7AF
:10527000C7FA012240213046FDF7D7FD0220FDF795
:10528000BFFA204600F014F8284600F011F800227A
:1052900040213046FDF7C9FD002210213046FDF7C0
:1052A000C4FDBDE870400220FDF7AABA0008014025
:1052B00070B505460024FFF727FE0F4E002210218F
:1052C0003046FDF7B2FD002210213046FDF7ADFD5E
:1052D000E80701D0012200E0002220213046FDF73E
:1052E000A4FD012210213046FDF79FFD641C6D08CE
:1052F000E4B2082CE7D370BD0008014010B5144695
:1053000000222260114A21F000439342A8BF10BD41
:1053100053EA000208BF10BDB3F5801FA8BF226882
:1053200007DA362200F0EDFD6FF0350221F0004380
:105330002260DFF81CC06FF31E510CEB23531A449C
:1053400041F0FF5141F00051226010BD0000F07F9C
:1053500002FCFFFF10B5FFF767FE17484FF46162CC
:105360004FF4616381784FF461645143427800786F
:10537000C2EB021201EB82010144104802785A4349
:105380004378C3EB031302EB830283781A44C37898
:10539000634304794079C4EB041403EB8403184499
:1053A000904205D2914201D2814203D8012010BD22
:1053B0009142F9D2002010BD070000203C000020DF
:1053C0002DE9F04106460C4640F2FF75174635EAD6
:1053D00014502BD000221346304600F07FF925D020
:1053E0003A463046214600F08CFD06460C4635EA2A
:1053F000145010D000221346304600F06FF915D13A
:105400000220FCF768FAFFF7E7FC0A46214662F340
:105410001E01BDE8F0810220FCF75DFAFFF7D5FC24
:105420000A46214662F31E01BDE8F081304621465E
:10543000BDE8F081FDF70CFDFFF796F9FEF70CFED5
:10544000FEF7E0FEFEF7AAFEFEF72AFFFEF7BCFF1E
:105450002D48FFF781FD08222C492D48FEF7B8FCA6
:10546000294CDFF8B0800025B4F12A04FDF7E8F9F3
:10547000A061FFF749FCA069074600F0ABFB0646B8
:10548000E06100F0C3FB394600F088FC00F002FB4D
:105490000022434600F0CAF900F05CF9034620629E
:1054A0001A4832461CA12038FAF7CCFE207830B1D9
:1054B00001280CD0022812D003281FD117E0A068C1
:1054C00008B1FEF70BFFA560FFF74AF816E0A068E9
:1054D00008B1FEF703FFA560FFF784F80EE0A068AF
:1054E00008B1FEF7FBFEA560FEF7F6FF06E0A06838
:1054F00008B1FEF7F3FEA560FFF7DAF800F010F848
:10550000C820FDF74FFBB1E7420000209C000020BF
:105510004C020020000024403A25642E25644300FC
:105520002DE9F0473148A0F12404017809B9C07889
:1055300010B1FFF70FFFA070A0780126DFF8B08050
:105540004FF4807900254FF07E5740B1D4E9051023
:1055500000F074FB13D2206902280FD00FE0012263
:10556000202146464046FDF760FC00224946304671
:10557000FDF75BFCE5602561BDE8F08725613946F4
:10558000606900F015FCA16900F0D7FB07D2404626
:10559000E560BDE8F04701222021FDF746BC394611
:1055A000606900F005FCA16900F048FB14D8D4E95B
:1055B000051000F043FB0FD2002220214046FDF7EA
:1055C00034FC04210B48FEF7FDF90A49E6604FF46C
:1055D0007A7009688863CFE720690228CCD001225D
:1055E00049464046FDF721FC2661C5E73C00002006
:1055F000000C01400402002010B500290AD00878F0
:10560000002807D005487844FCF798FB002801D013
:10561000002010BD0248784410BD0000DA180000D8
:10562000D218000010B500290AD00878002807D049
:1056300005487844FCF782FB002801D0002010BD0B
:105640000248784410BD0000CA180000C2180000CB
:1056500021F00042A2F16052B2F5801F01F0004338
:1056600028BFD2F17F6C0BD95FEA001C43EAC2026B
:1056700042EB507018BF704728BF20F00100704700
:10568000B2F5801FBCBF184670474FEA410C1CF5AD
:10569000001F02D2084600F04BBB70B500F070F955
:1056A00000000089FFF7F6BF4FF00040A0F5800032
:1056B0007047000002494FF0000000F0F0BB00BF4F
:1056C0000000F87F491058BFC1F140415B1058BF3E
:1056D000C3F140438B42EFF30080704751EA030C63
:1056E00017D41CF5801F58BFBCF5801F00F1068041
:1056F000994218BF704708BF9042704707D711F50D
:10570000801F58BF13F5801F19D4994270478942F2
:1057100070471CF5801F08D5BCF5801FF7D58B425C
:1057200018BF704708BF824270474FF4001C1CEB43
:10573000410F38BF1CEB430F01D28B42704770B54D
:1057400000F01EF9922449004FF000514FF08053B1
:10575000FFF7B8BF4FEA41034FEA5353A3F5806305
:10576000D3F11E03C8BFD3F1210C0CDD4FF0004272
:1057700042EAC12242EA505232FA03FC8CEAE17C4E
:10578000ACEBE1707047102BC4BF0020704703F5ED
:10579000787CBCF1FF3F04D06FF0004282EA210028
:1057A000704770B500F0ECF84992248000207047F3
:1057B000F2E7000051EA030C17D41CF5801F58BF14
:1057C000BCF5801F00F10680994218BF704708BFE2
:1057D0009042704707D711F5801F58BF13F5801FFF
:1057E00019D499427047894270471CF5801F08D52B
:1057F000BCF5801FF7D58B4218BF704708BF8242A7
:1058000070474FF4001C1CEB410F38BF1CEB430FDB
:1058100001D28B42704770B500F0B2F89224490073
:105820004FF000514FF08053FFF74CBFDFF848C1F5
:1058300070B51CEA111E1EBF1CEA13159EEA0C0F60
:1058400095EA0C0F00F06F8081EA030423EA4C1301
:105850004EEAD47E21EA4C1141F4801143F48013C6
:10586000AE44A1FB024CA0FB0365AEF17F7E36196E
:1058700055EB0C05A1FB034C4CF10003A0FB021CF3
:1058800016EB0C06654153F10003094218BF46F0C0
:10589000010613F4007F0BD14FEA03314FEA0530C4
:1058A000340341EA155140EA16506FF003020AE052
:1058B0004FEAC3214FEAC520F40241EA555140EABC
:1058C00056506FF0020202EB2E4201EB025585EAC0
:1058D000CE710AD05FEA440C18BF24F0004450F1A6
:1058E000000041F1000120EAD47040F2FE7C6245E4
:1058F00000D270BDA84214BF4FF080444FF0404426
:10590000002E08BF0024BEF1806FA8BFA1F1C041E6
:10591000BDE8704080F282804FF0000001F1C0418C
:1059200001F0004170479EEA0C0F0CEA131518BFF6
:1059300095EA0C0F06D04FF0000081EA030E0EF03E
:10594000004170BD00F01CF88900013E00F007B86E
:1059500000F009B84FEA430C5FEA5C5C08D081EACA
:10596000030100F05BB84FEA410C5FEA5C5CF6D1E2
:105970004FF00000014970470000FF070000F87F6A
:105980000EF1020E2EF0030E5EF8046B364205D4C3
:10599000012A43EB030515F5001F12D8012841EB3E
:1059A000010C1CF5001F0CD80ED14FEAD17C15F567
:1059B000001F0CEB4C0C0CF1020C08BF4CEBD37C21
:1059C00004E04FF0080C01E04FEAD37C0CEB4C05EF
:1059D00026FA05F606F00706B6F1040C06D20EEB21
:1059E000860CBDE870404CF0010C6047DFE80CF01D
:1059F000090B02024FF000414FF00000A1F5002119
:105A000070BD19461046012851EB010418BFD4F5AA
:105A1000001484BF002001F0004170BD0808A0F50B
:105A200000114FEA3101704753EA010C17D41CF5FD
:105A3000801F58BFBCF5801F00F106808B4218BF45
:105A4000704708BF8242704707D713F5801F58BFC1
:105A500011F5801F19D48B4270479B4270471CF58B
:105A6000801F08D5BCF5801FF7D5994218BF704735
:105A700008BF904270474FF4001C1CEB430F38BF27
:105A80001CEB410F01D2994270470FB40CBC03BC10
:105A9000FFF7C1BE43004FEAD30C4FEA3C0C434032
:105AA0001FBF40070CF1605113F0FE4F70471CF010
:105AB000006F03D100200CF0004170470CF0004350
:105AC00043EA507010B540EACC0000F0EBF800BF9C
:105AD000000000924FEA0001FFF7A0BF4FF0004125
